{
  "_format": "hh-sol-artifact-1",
  "contractName": "PaymentSplitter",
  "sourceName": "contracts/PaymentSplitter.sol",
  "abi": [
    {
      "anonymous": false,
      "inputs": [
        {
          "indexed": true,
          "internalType": "contract IERC20",
          "name": "token",
          "type": "address"
        },
        {
          "indexed": false,
          "internalType": "address",
          "name": "to",
          "type": "address"
        },
        {
          "indexed": false,
          "internalType": "uint256",
          "name": "amount",
          "type": "uint256"
        }
      ],
      "name": "ERC20PaymentReleased",
      "type": "event"
    },
    {
      "anonymous": false,
      "inputs": [
        {
          "indexed": false,
          "internalType": "address",
          "name": "account",
          "type": "address"
        },
        {
          "indexed": false,
          "internalType": "uint256",
          "name": "shares",
          "type": "uint256"
        }
      ],
      "name": "PayeeAdded",
      "type": "event"
    },
    {
      "anonymous": false,
      "inputs": [
        {
          "indexed": false,
          "internalType": "address",
          "name": "from",
          "type": "address"
        },
        {
          "indexed": false,
          "internalType": "uint256",
          "name": "amount",
          "type": "uint256"
        }
      ],
      "name": "PaymentReceived",
      "type": "event"
    },
    {
      "anonymous": false,
      "inputs": [
        {
          "indexed": false,
          "internalType": "address",
          "name": "to",
          "type": "address"
        },
        {
          "indexed": false,
          "internalType": "uint256",
          "name": "amount",
          "type": "uint256"
        }
      ],
      "name": "PaymentReleased",
      "type": "event"
    },
    {
      "inputs": [
        {
          "internalType": "uint256",
          "name": "index",
          "type": "uint256"
        }
      ],
      "name": "payee",
      "outputs": [
        {
          "internalType": "address",
          "name": "",
          "type": "address"
        }
      ],
      "stateMutability": "view",
      "type": "function"
    },
    {
      "inputs": [
        {
          "internalType": "address payable",
          "name": "account",
          "type": "address"
        }
      ],
      "name": "release",
      "outputs": [],
      "stateMutability": "nonpayable",
      "type": "function"
    },
    {
      "inputs": [
        {
          "internalType": "contract IERC20",
          "name": "token",
          "type": "address"
        },
        {
          "internalType": "address",
          "name": "account",
          "type": "address"
        }
      ],
      "name": "release",
      "outputs": [],
      "stateMutability": "nonpayable",
      "type": "function"
    },
    {
      "inputs": [
        {
          "internalType": "contract IERC20",
          "name": "token",
          "type": "address"
        },
        {
          "internalType": "address",
          "name": "account",
          "type": "address"
        }
      ],
      "name": "released",
      "outputs": [
        {
          "internalType": "uint256",
          "name": "",
          "type": "uint256"
        }
      ],
      "stateMutability": "view",
      "type": "function"
    },
    {
      "inputs": [
        {
          "internalType": "address",
          "name": "account",
          "type": "address"
        }
      ],
      "name": "released",
      "outputs": [
        {
          "internalType": "uint256",
          "name": "",
          "type": "uint256"
        }
      ],
      "stateMutability": "view",
      "type": "function"
    },
    {
      "inputs": [
        {
          "internalType": "address[]",
          "name": "payees",
          "type": "address[]"
        },
        {
          "internalType": "uint256[]",
          "name": "shares_",
          "type": "uint256[]"
        }
      ],
      "name": "setup",
      "outputs": [],
      "stateMutability": "payable",
      "type": "function"
    },
    {
      "inputs": [
        {
          "internalType": "address",
          "name": "account",
          "type": "address"
        }
      ],
      "name": "shares",
      "outputs": [
        {
          "internalType": "uint256",
          "name": "",
          "type": "uint256"
        }
      ],
      "stateMutability": "view",
      "type": "function"
    },
    {
      "inputs": [
        {
          "internalType": "contract IERC20",
          "name": "token",
          "type": "address"
        }
      ],
      "name": "totalReleased",
      "outputs": [
        {
          "internalType": "uint256",
          "name": "",
          "type": "uint256"
        }
      ],
      "stateMutability": "view",
      "type": "function"
    },
    {
      "inputs": [],
      "name": "totalReleased",
      "outputs": [
        {
          "internalType": "uint256",
          "name": "",
          "type": "uint256"
        }
      ],
      "stateMutability": "view",
      "type": "function"
    },
    {
      "inputs": [],
      "name": "totalShares",
      "outputs": [
        {
          "internalType": "uint256",
          "name": "",
          "type": "uint256"
        }
      ],
      "stateMutability": "view",
      "type": "function"
    },
    {
      "stateMutability": "payable",
      "type": "receive"
    }
  ],
  "bytecode": "0x608060405234801561001057600080fd5b50612083806100206000396000f3fe6080604052600436106100955760003560e01c80638b83209b116100595780638b83209b146101b75780639852595c146101f4578063ce7c2ac214610231578063d79779b21461026e578063e33b7de3146102ab576100dc565b806319165587146100e157806328814f031461010a5780633a98ef3914610126578063406072a91461015157806348b750441461018e576100dc565b366100dc577f6ef95f06320e7a25a04a175ca677b7052bdd97131872c2192525a629f51be7706100c36102d6565b346040516100d2929190611724565b60405180910390a1005b600080fd5b3480156100ed57600080fd5b50610108600480360381019061010391906112e1565b6102de565b005b610124600480360381019061011f919061130a565b610489565b005b34801561013257600080fd5b5061013b6105d1565b60405161014891906118ef565b60405180910390f35b34801561015d57600080fd5b50610178600480360381019061017391906113c8565b6105da565b60405161018591906118ef565b60405180910390f35b34801561019a57600080fd5b506101b560048036038101906101b091906113c8565b610661565b005b3480156101c357600080fd5b506101de60048036038101906101d99190611404565b610929565b6040516101eb91906116e0565b60405180910390f35b34801561020057600080fd5b5061021b600480360381019061021691906112b8565b610997565b60405161022891906118ef565b60405180910390f35b34801561023d57600080fd5b50610258600480360381019061025391906112b8565b6109e0565b60405161026591906118ef565b60405180910390f35b34801561027a57600080fd5b506102956004803603810190610290919061139f565b610a29565b6040516102a291906118ef565b60405180910390f35b3480156102b757600080fd5b506102c0610a72565b6040516102cd91906118ef565b60405180910390f35b600033905090565b6000600260008373ffffffffffffffffffffffffffffffffffffffff1673ffffffffffffffffffffffffffffffffffffffff1681526020019081526020016000205411610360576040517f08c379a00000000000000000000000000000000000000000000000000000000081526004016103579061178f565b60405180910390fd5b600061036a610a72565b4761037591906119b9565b9050600061038c838361038786610997565b610a7c565b905060008114156103d2576040517f08c379a00000000000000000000000000000000000000000000000000000000081526004016103c99061180f565b60405180910390fd5b80600360008573ffffffffffffffffffffffffffffffffffffffff1673ffffffffffffffffffffffffffffffffffffffff168152602001908152602001600020600082825461042191906119b9565b92505081905550806001600082825461043a91906119b9565b9250508190555061044b8382610aea565b7fdf20fd1e76bc69d672e4814fafb2c449bba3a5369d8359adf9e05e6fde87b056838260405161047c9291906116fb565b60405180910390a1505050565b60006004805490501461049b57600080fd5b80518251146104df576040517f08c379a00000000000000000000000000000000000000000000000000000000081526004016104d69061182f565b60405180910390fd5b6000825111610523576040517f08c379a000000000000000000000000000000000000000000000000000000000815260040161051a906118af565b60405180910390fd5b60005b82518110156105cc576105b983828151811061056b577f4e487b7100000000000000000000000000000000000000000000000000000000600052603260045260246000fd5b60200260200101518383815181106105ac577f4e487b7100000000000000000000000000000000000000000000000000000000600052603260045260246000fd5b6020026020010151610bde565b80806105c490611bd4565b915050610526565b505050565b60008054905090565b6000600660008473ffffffffffffffffffffffffffffffffffffffff1673ffffffffffffffffffffffffffffffffffffffff16815260200190815260200160002060008373ffffffffffffffffffffffffffffffffffffffff1673ffffffffffffffffffffffffffffffffffffffff16815260200190815260200160002054905092915050565b6000600260008373ffffffffffffffffffffffffffffffffffffffff1673ffffffffffffffffffffffffffffffffffffffff16815260200190815260200160002054116106e3576040517f08c379a00000000000000000000000000000000000000000000000000000000081526004016106da9061178f565b60405180910390fd5b60006106ee83610a29565b8373ffffffffffffffffffffffffffffffffffffffff166370a08231306040518263ffffffff1660e01b815260040161072791906116e0565b60206040518083038186803b15801561073f57600080fd5b505afa158015610753573d6000803e3d6000fd5b505050506040513d601f19601f82011682018060405250810190610777919061142d565b61078191906119b9565b90506000610799838361079487876105da565b610a7c565b905060008114156107df576040517f08c379a00000000000000000000000000000000000000000000000000000000081526004016107d69061180f565b60405180910390fd5b80600660008673ffffffffffffffffffffffffffffffffffffffff1673ffffffffffffffffffffffffffffffffffffffff16815260200190815260200160002060008573ffffffffffffffffffffffffffffffffffffffff1673ffffffffffffffffffffffffffffffffffffffff168152602001908152602001600020600082825461086b91906119b9565b9250508190555080600560008673ffffffffffffffffffffffffffffffffffffffff1673ffffffffffffffffffffffffffffffffffffffff16815260200190815260200160002060008282546108c191906119b9565b925050819055506108d3848483610e0b565b8373ffffffffffffffffffffffffffffffffffffffff167f3be5b7a71e84ed12875d241991c70855ac5817d847039e17a9d895c1ceb0f18a848360405161091b929190611724565b60405180910390a250505050565b600060048281548110610965577f4e487b7100000000000000000000000000000000000000000000000000000000600052603260045260246000fd5b9060005260206000200160009054906101000a900473ffffffffffffffffffffffffffffffffffffffff169050919050565b6000600360008373ffffffffffffffffffffffffffffffffffffffff1673ffffffffffffffffffffffffffffffffffffffff168152602001908152602001600020549050919050565b6000600260008373ffffffffffffffffffffffffffffffffffffffff1673ffffffffffffffffffffffffffffffffffffffff168152602001908152602001600020549050919050565b6000600560008373ffffffffffffffffffffffffffffffffffffffff1673ffffffffffffffffffffffffffffffffffffffff168152602001908152602001600020549050919050565b6000600154905090565b600081600054600260008773ffffffffffffffffffffffffffffffffffffffff1673ffffffffffffffffffffffffffffffffffffffff1681526020019081526020016000205485610acd9190611a40565b610ad79190611a0f565b610ae19190611a9a565b90509392505050565b80471015610b2d576040517f08c379a0000000000000000000000000000000000000000000000000000000008152600401610b24906117cf565b60405180910390fd5b60008273ffffffffffffffffffffffffffffffffffffffff1682604051610b53906116cb565b60006040518083038185875af1925050503d8060008114610b90576040519150601f19603f3d011682016040523d82523d6000602084013e610b95565b606091505b5050905080610bd9576040517f08c379a0000000000000000000000000000000000000000000000000000000008152600401610bd0906117af565b60405180910390fd5b505050565b600073ffffffffffffffffffffffffffffffffffffffff168273ffffffffffffffffffffffffffffffffffffffff161415610c4e576040517f08c379a0000000000000000000000000000000000000000000000000000000008152600401610c459061176f565b60405180910390fd5b60008111610c91576040517f08c379a0000000000000000000000000000000000000000000000000000000008152600401610c88906118cf565b60405180910390fd5b6000600260008473ffffffffffffffffffffffffffffffffffffffff1673ffffffffffffffffffffffffffffffffffffffff1681526020019081526020016000205414610d13576040517f08c379a0000000000000000000000000000000000000000000000000000000008152600401610d0a9061186f565b60405180910390fd5b6004829080600181540180825580915050600190039060005260206000200160009091909190916101000a81548173ffffffffffffffffffffffffffffffffffffffff021916908373ffffffffffffffffffffffffffffffffffffffff16021790555080600260008473ffffffffffffffffffffffffffffffffffffffff1673ffffffffffffffffffffffffffffffffffffffff1681526020019081526020016000208190555080600054610dc891906119b9565b6000819055507f40c340f65e17194d14ddddb073d3c9f888e3cb52b5aae0c6c7706b4fbc905fac8282604051610dff929190611724565b60405180910390a15050565b610e8c8363a9059cbb60e01b8484604051602401610e2a929190611724565b604051602081830303815290604052907bffffffffffffffffffffffffffffffffffffffffffffffffffffffff19166020820180517bffffffffffffffffffffffffffffffffffffffffffffffffffffffff8381831617835250505050610e91565b505050565b6000610ef3826040518060400160405280602081526020017f5361666545524332303a206c6f772d6c6576656c2063616c6c206661696c65648152508573ffffffffffffffffffffffffffffffffffffffff16610f589092919063ffffffff16565b9050600081511115610f535780806020019051810190610f139190611376565b610f52576040517f08c379a0000000000000000000000000000000000000000000000000000000008152600401610f499061188f565b60405180910390fd5b5b505050565b6060610f678484600085610f70565b90509392505050565b606082471015610fb5576040517f08c379a0000000000000000000000000000000000000000000000000000000008152600401610fac906117ef565b60405180910390fd5b610fbe85611084565b610ffd576040517f08c379a0000000000000000000000000000000000000000000000000000000008152600401610ff49061184f565b60405180910390fd5b6000808673ffffffffffffffffffffffffffffffffffffffff16858760405161102691906116b4565b60006040518083038185875af1925050503d8060008114611063576040519150601f19603f3d011682016040523d82523d6000602084013e611068565b606091505b50915091506110788282866110a7565b92505050949350505050565b6000808273ffffffffffffffffffffffffffffffffffffffff163b119050919050565b606083156110b757829050611107565b6000835111156110ca5782518084602001fd5b816040517f08c379a00000000000000000000000000000000000000000000000000000000081526004016110fe919061174d565b60405180910390fd5b9392505050565b600061112161111c8461192f565b61190a565b9050808382526020820190508285602086028201111561114057600080fd5b60005b85811015611170578161115688826111e6565b845260208401935060208301925050600181019050611143565b5050509392505050565b600061118d6111888461195b565b61190a565b905080838252602082019050828560208602820111156111ac57600080fd5b60005b858110156111dc57816111c2888261128e565b8452602084019350602083019250506001810190506111af565b5050509392505050565b6000813590506111f581611fda565b92915050565b60008135905061120a81611ff1565b92915050565b600082601f83011261122157600080fd5b813561123184826020860161110e565b91505092915050565b600082601f83011261124b57600080fd5b813561125b84826020860161117a565b91505092915050565b60008151905061127381612008565b92915050565b6000813590506112888161201f565b92915050565b60008135905061129d81612036565b92915050565b6000815190506112b281612036565b92915050565b6000602082840312156112ca57600080fd5b60006112d8848285016111e6565b91505092915050565b6000602082840312156112f357600080fd5b6000611301848285016111fb565b91505092915050565b6000806040838503121561131d57600080fd5b600083013567ffffffffffffffff81111561133757600080fd5b61134385828601611210565b925050602083013567ffffffffffffffff81111561136057600080fd5b61136c8582860161123a565b9150509250929050565b60006020828403121561138857600080fd5b600061139684828501611264565b91505092915050565b6000602082840312156113b157600080fd5b60006113bf84828501611279565b91505092915050565b600080604083850312156113db57600080fd5b60006113e985828601611279565b92505060206113fa858286016111e6565b9150509250929050565b60006020828403121561141657600080fd5b60006114248482850161128e565b91505092915050565b60006020828403121561143f57600080fd5b600061144d848285016112a3565b91505092915050565b61145f81611b3a565b82525050565b61146e81611ace565b82525050565b600061147f82611987565b611489818561199d565b9350611499818560208601611b70565b80840191505092915050565b60006114b082611992565b6114ba81856119a8565b93506114ca818560208601611b70565b6114d381611caa565b840191505092915050565b60006114eb602c836119a8565b91506114f682611cbb565b604082019050919050565b600061150e6026836119a8565b915061151982611d0a565b604082019050919050565b6000611531603a836119a8565b915061153c82611d59565b604082019050919050565b6000611554601d836119a8565b915061155f82611da8565b602082019050919050565b60006115776026836119a8565b915061158282611dd1565b604082019050919050565b600061159a602b836119a8565b91506115a582611e20565b604082019050919050565b60006115bd6032836119a8565b91506115c882611e6f565b604082019050919050565b60006115e060008361199d565b91506115eb82611ebe565b600082019050919050565b6000611603601d836119a8565b915061160e82611ec1565b602082019050919050565b6000611626602b836119a8565b915061163182611eea565b604082019050919050565b6000611649602a836119a8565b915061165482611f39565b604082019050919050565b600061166c601a836119a8565b915061167782611f88565b602082019050919050565b600061168f601d836119a8565b915061169a82611fb1565b602082019050919050565b6116ae81611b30565b82525050565b60006116c08284611474565b915081905092915050565b60006116d6826115d3565b9150819050919050565b60006020820190506116f56000830184611465565b92915050565b60006040820190506117106000830185611456565b61171d60208301846116a5565b9392505050565b60006040820190506117396000830185611465565b61174660208301846116a5565b9392505050565b6000602082019050818103600083015261176781846114a5565b905092915050565b60006020820190508181036000830152611788816114de565b9050919050565b600060208201905081810360008301526117a881611501565b9050919050565b600060208201905081810360008301526117c881611524565b9050919050565b600060208201905081810360008301526117e881611547565b9050919050565b600060208201905081810360008301526118088161156a565b9050919050565b600060208201905081810360008301526118288161158d565b9050919050565b60006020820190508181036000830152611848816115b0565b9050919050565b60006020820190508181036000830152611868816115f6565b9050919050565b6000602082019050818103600083015261188881611619565b9050919050565b600060208201905081810360008301526118a88161163c565b9050919050565b600060208201905081810360008301526118c88161165f565b9050919050565b600060208201905081810360008301526118e881611682565b9050919050565b600060208201905061190460008301846116a5565b92915050565b6000611914611925565b90506119208282611ba3565b919050565b6000604051905090565b600067ffffffffffffffff82111561194a57611949611c7b565b5b602082029050602081019050919050565b600067ffffffffffffffff82111561197657611975611c7b565b5b602082029050602081019050919050565b600081519050919050565b600081519050919050565b600081905092915050565b600082825260208201905092915050565b60006119c482611b30565b91506119cf83611b30565b9250827fffffffffffffffffffffffffffffffffffffffffffffffffffffffffffffffff03821115611a0457611a03611c1d565b5b828201905092915050565b6000611a1a82611b30565b9150611a2583611b30565b925082611a3557611a34611c4c565b5b828204905092915050565b6000611a4b82611b30565b9150611a5683611b30565b9250817fffffffffffffffffffffffffffffffffffffffffffffffffffffffffffffffff0483118215151615611a8f57611a8e611c1d565b5b828202905092915050565b6000611aa582611b30565b9150611ab083611b30565b925082821015611ac357611ac2611c1d565b5b828203905092915050565b6000611ad982611b10565b9050919050565b6000611aeb82611b10565b9050919050565b60008115159050919050565b6000611b0982611ace565b9050919050565b600073ffffffffffffffffffffffffffffffffffffffff82169050919050565b6000819050919050565b6000611b4582611b4c565b9050919050565b6000611b5782611b5e565b9050919050565b6000611b6982611b10565b9050919050565b60005b83811015611b8e578082015181840152602081019050611b73565b83811115611b9d576000848401525b50505050565b611bac82611caa565b810181811067ffffffffffffffff82111715611bcb57611bca611c7b565b5b80604052505050565b6000611bdf82611b30565b91507fffffffffffffffffffffffffffffffffffffffffffffffffffffffffffffffff821415611c1257611c11611c1d565b5b600182019050919050565b7f4e487b7100000000000000000000000000000000000000000000000000000000600052601160045260246000fd5b7f4e487b7100000000000000000000000000000000000000000000000000000000600052601260045260246000fd5b7f4e487b7100000000000000000000000000000000000000000000000000000000600052604160045260246000fd5b6000601f19601f8301169050919050565b7f5061796d656e7453706c69747465723a206163636f756e74206973207468652060008201527f7a65726f20616464726573730000000000000000000000000000000000000000602082015250565b7f5061796d656e7453706c69747465723a206163636f756e7420686173206e6f2060008201527f7368617265730000000000000000000000000000000000000000000000000000602082015250565b7f416464726573733a20756e61626c6520746f2073656e642076616c75652c207260008201527f6563697069656e74206d61792068617665207265766572746564000000000000602082015250565b7f416464726573733a20696e73756666696369656e742062616c616e6365000000600082015250565b7f416464726573733a20696e73756666696369656e742062616c616e636520666f60008201527f722063616c6c0000000000000000000000000000000000000000000000000000602082015250565b7f5061796d656e7453706c69747465723a206163636f756e74206973206e6f742060008201527f647565207061796d656e74000000000000000000000000000000000000000000602082015250565b7f5061796d656e7453706c69747465723a2070617965657320616e64207368617260008201527f6573206c656e677468206d69736d617463680000000000000000000000000000602082015250565b50565b7f416464726573733a2063616c6c20746f206e6f6e2d636f6e7472616374000000600082015250565b7f5061796d656e7453706c69747465723a206163636f756e7420616c726561647960008201527f2068617320736861726573000000000000000000000000000000000000000000602082015250565b7f5361666545524332303a204552433230206f7065726174696f6e20646964206e60008201527f6f74207375636365656400000000000000000000000000000000000000000000602082015250565b7f5061796d656e7453706c69747465723a206e6f20706179656573000000000000600082015250565b7f5061796d656e7453706c69747465723a20736861726573206172652030000000600082015250565b611fe381611ace565b8114611fee57600080fd5b50565b611ffa81611ae0565b811461200557600080fd5b50565b61201181611af2565b811461201c57600080fd5b50565b61202881611afe565b811461203357600080fd5b50565b61203f81611b30565b811461204a57600080fd5b5056fea26469706673582212201760aa93042cb089a8ce33e1f18572bfa5c64dae20f482d7a775e61333da048664736f6c63430008040033",
  "linkReferences": {},
  "deployedLinkReferences": {}
}